:020000040020DA
:1000000000000420653320004D3920004F392000C6
:1000100051392000533920005539200000000000DC
:100020000000000000000000000000005739200020
:1000300059392000000000005B3920005D392000A4
:10004000B5332000B5332000B5332000B533200090
:10005000B5332000B5332000B5332000B533200080
:10006000B5332000B5332000B5332000B533200070
:10007000B5332000B5332000B5332000B533200060
:10008000B5332000B5332000B5332000B533200050
:10009000B5332000B5332000B5332000B533200040
:1000A000B5332000B5332000B5332000B533200030
:1000B000B5332000B5332000B5332000B533200020
:1000C000B5332000B5332000B5332000B533200010
:1000D000B5332000B5332000B5332000B533200000
:1000E000B5332000B5332000B5332000B5332000F0
:1000F000B5332000B5332000B5332000B5332000E0
:10010000B5332000B5332000B5332000B5332000CF
:10011000B5332000B5332000B5332000B5332000BF
:1001200061392000B5332000B5332000B5332000FD
:10013000B5332000000000000000000000000000B7
:10014000000000000000000000000000B5332000A7
:10015000B5332000B5332000B5332000B53320007F
:10016000B5332000B5332000B5332000B53320006F
:10017000B5332000B533200000000000000000006F
:10018000B5332000B5332000B5332000B53320004F
:10019000B5332000B533200000000000B533200047
:1001A000000000000000000000000000B533200047
:1001B000B5332000B533200000000000000000002F
:1001C000000000000000000000000000000000002F
:1001D000000000000000000000000000B533200017
:1001E00010B5054C237833B9044B13B10448AFF371
:1001F00000800123237010BDE000002000000000FB
:10020000B8392000084B10B51BB108490848AFF3B6
:1002100000800848036803B910BD074B002BFBD0D2
:10022000BDE81040184700BF00000000E4000020B7
:10023000B8392000E00000200000000081F00041FB
:1002400002E000BF83F0004330B54FEA41044FEABB
:10025000430594EA050F08BF90EA020F1FBF54EA56
:10026000000C55EA020C7FEA645C7FEA655C00F0F2
:10027000E2804FEA5454D4EB5555B8BF6D420CDDC3
:100280002C4480EA020281EA030382EA000083EA46
:10029000010180EA020281EA0303362D88BF30BDE6
:1002A00011F0004F4FEA01314FF4801C4CEA11313C
:1002B00002D0404261EB410113F0004F4FEA03339B
:1002C0004CEA133302D0524263EB430394EA050F26
:1002D00000F0A780A4F10104D5F1200E0DDB02FA95
:1002E0000EFC22FA05F2801841F1000103FA0EF229
:1002F000801843FA05F359410EE0A5F120050EF1EF
:10030000200E012A03FA0EFC28BF4CF0020C43FA1F
:1003100005F3C01851EBE37101F0004507D54FF02C
:10032000000EDCF1000C7EEB00006EEB0101B1F57C
:10033000801F1BD3B1F5001F0CD349085FEA3000C2
:100340004FEA3C0C04F101044FEA445212F5800FCD
:1003500080F09A80BCF1004F08BF5FEA500C50F16A
:10036000000041EB045141EA050130BD5FEA4C0C4D
:10037000404141EB010111F4801FA4F10104E9D1D6
:1003800091F0000F04BF01460020B1FA81F308BFCD
:100390002033A3F10B03B3F120020CDA0C3208DD99
:1003A00002F1140CC2F10C0201FA0CF021FA02F174
:1003B0000CE002F11402D8BFC2F1200C01FA02F1E4
:1003C00020FA0CFCDCBF41EA0C019040E41AA2BF09
:1003D00001EB0451294330BD6FEA04041F3C1CDAD1
:1003E0000C340EDC04F11404C4F1200220FA04F0F1
:1003F00001FA02F340EA030021FA04F345EA03019B
:1004000030BDC4F10C04C4F1200220FA02F001FA5C
:1004100004F340EA0300294630BD21FA04F02946DE
:1004200030BD94F0000F83F4801306BF81F4801177
:100430000134013D4EE77FEA645C18BF7FEA655CEA
:1004400029D094EA050F08BF90EA020F05D054EABC
:10045000000C04BF1946104630BD91EA030F1EBFC1
:100460000021002030BD5FEA545C05D140004941C5
:1004700028BF41F0004130BD14F580043CBF01F5B8
:10048000801130BD01F0004545F0FE4141F470019E
:100490004FF0000030BD7FEA645C1ABF1946104679
:1004A0007FEA655C1CBF0B46024650EA013406BF7A
:1004B00052EA033591EA030F41F4002130BD00BF39
:1004C00090F0000F04BF0021704730B54FF48064F6
:1004D00004F132044FF000054FF0000150E700BF77
:1004E00090F0000F04BF0021704730B54FF48064D6
:1004F00004F1320410F0004548BF40424FF00001C3
:100500003EE700BF42004FEAE2014FEA31014FEA05
:1005100002701FBF12F07F4393F07F4F81F0605154
:10052000704792F0000F14BF93F07F4F704730B5C3
:100530004FF4607401F0004521F0004120E700BF56
:1005400050EA010208BF704730B54FF000050AE0DD
:1005500050EA010208BF704730B511F0004502D5DE
:10056000404261EB41014FF4806404F132045FEAE0
:10057000915C3FF4DCAE4FF003025FEADC0C18BF85
:1005800003325FEADC0C18BF033202EBDC02C2F17B
:10059000200300FA03FC20FA02F001FA03FE40EA0D
:1005A0000E0021FA02F11444C1E600BF70B54FF00D
:1005B000FF0C4CF4E06C1CEA11541DBF1CEA1355EF
:1005C00094EA0C0F95EA0C0F00F0DEF82C4481EA57
:1005D000030621EA4C5123EA4C5350EA013518BF77
:1005E00052EA033541F4801143F4801338D0A0FB64
:1005F00002CE4FF00005E1FB02E506F00042E0FB11
:1006000003E54FF00006E1FB03569CF0000F18BF16
:100610004EF0010EA4F1FF04B6F5007F64F54074BE
:1006200004D25FEA4E0E6D4146EB060642EAC62151
:1006300041EA55514FEAC52040EA5E504FEACE2EBE
:10064000B4F1FD0C88BFBCF5E06F1ED8BEF1004FC1
:1006500008BF5FEA500E50F1000041EB045170BD3D
:1006600006F0004646EA010140EA020081EA030181
:10067000B4EB5C04C2BFD4EB0C0541EA045170BD7D
:1006800041F480114FF0000E013C00F3AB8014F1F7
:10069000360FDEBF002001F0004170BDC4F1000440
:1006A000203C35DA0C341BDC04F11404C4F12005C1
:1006B00000FA05F320FA04F001FA05F240EA02001C
:1006C00001F0004221F0004110EBD37021FA04F652
:1006D00042EB06015EEA430E08BF20EAD37070BD0C
:1006E000C4F10C04C4F1200500FA04F320FA05F06B
:1006F00001FA04F240EA020001F0004110EBD3706D
:1007000041F100015EEA430E08BF20EAD37070BDDC
:10071000C4F1200500FA05F24EEA020E20FA04F3B5
:1007200001FA05F243EA020321FA04F001F0004164
:1007300021FA04F220EA020000EBD3705EEA430ED5
:1007400008BF20EAD37070BD94F0000F0FD101F004
:100750000046400041EB010111F4801F08BF013C3D
:10076000F7D041EA060195F0000F18BF704703F07B
:100770000046520043EB030313F4801F08BF013D02
:10078000F7D043EA0603704794EA0C0F0CEA1355BE
:1007900018BF95EA0C0F0CD050EA410618BF52EA78
:1007A0004306D1D181EA030101F000414FF000007E
:1007B00070BD50EA410606BF1046194652EA43068C
:1007C00019D094EA0C0F02D150EA013613D195EA00
:1007D0000C0F05D152EA03361CBF104619460AD148
:1007E00081EA030101F0004141F0FE4141F4700152
:1007F0004FF0000070BD41F0FE4141F4780170BD42
:1008000070B54FF0FF0C4CF4E06C1CEA11541DBFA6
:100810001CEA135594EA0C0F95EA0C0F00F0A7F8A8
:10082000A4EB050481EA030E52EA03354FEA0131D5
:1008300000F088804FEA03334FF0805545EA1313E8
:1008400043EA12634FEA022245EA111545EA1065B0
:100850004FEA00260EF000419D4208BF964244F147
:10086000FD0404F5407402D25B084FEA3202B61A66
:1008700065EB03055B084FEA32024FF480104FF43A
:10088000002CB6EB020E75EB030E22BFB61A7546AE
:1008900040EA0C005B084FEA3202B6EB020E75EB41
:1008A000030E22BFB61A754640EA5C005B084FEAA9
:1008B0003202B6EB020E75EB030E22BFB61A754676
:1008C00040EA9C005B084FEA3202B6EB020E75EB81
:1008D000030E22BFB61A754640EADC0055EA060E42
:1008E00018D04FEA051545EA16754FEA06164FEA85
:1008F000C30343EA52734FEAC2025FEA1C1CC0D131
:1009000011F4801F0BD141EA00014FF000004FF0BD
:10091000004CB6E711F4801F04BF01430020B4F17E
:10092000FD0C88BFBCF5E06F3FF6AFAEB5EB030C36
:1009300004BFB6EB020C5FEA500C50F1000041EB33
:10094000045170BD0EF0004E4EEA113114EB5C0400
:10095000C2BFD4EB0C0541EA045170BD41F48011D3
:100960004FF0000E013C90E645EA060E8DE60CEADB
:10097000135594EA0C0F08BF95EA0C0F3FF43BAFF8
:1009800094EA0C0F0AD150EA01347FF434AF95EAAF
:100990000C0F7FF425AF104619462CE795EA0C0F93
:1009A00006D152EA03353FF4FDAE1046194622E760
:1009B00050EA410618BF52EA43067FF4C5AE50EA3A
:1009C00041047FF40DAF52EA43057FF4EBAE12E72A
:1009D0004FEA4102B2F1E04324BFB3F5001CDCF161
:1009E000FE5C0DD901F0004C4FEAC0024CEA507099
:1009F000B2F1004F40EB830008BF20F001007047C8
:100A000011F0804F21D113F13872BCBF01F00040CA
:100A1000704741F480114FEA5252C2F11802C2F1FC
:100A2000200C10FA0CF320FA02F018BF40F001007D
:100A30004FEAC1234FEAD32303FA0CFC40EA0C002F
:100A400023FA02F34FEA4303CCE77FEA625307D16C
:100A500050EA01331EBF4FF0FE4040F440007047A3
:100A600001F0004040F0FE4040F40000704700BF3D
:100A700000207047704710B5044600F067FDA821BC
:100A8000E0B200F09DFD10BD13B500240221C0B2FC
:100A90008DF8074000F094FD8DF807009DF80730B1
:100AA00003F00F038DF807309DF80730022B01D9B2
:100AB0008DF807409DF80720034B9DF807005A70FA
:100AC00000229A7002B010BDFC00002073B5154CD6
:100AD00015460E46A37862789A4221D923B1012B9C
:100AE0000CBF0921002100E003210423C0B20DEB5B
:100AF000030200F079FD9DF804309DF805201B02EB
:100B000003F4706313439DF8072033809DF806308B
:100B10001B0203F4706313432B80A3780133A3708B
:100B200002B070BDFC0000200122A421C0B200F080
:100B300037BD0022A421C0B200F032BDFFF7F9BFDB
:100B400070470000074AD37898420AD0117988424A
:100B500000D170470BB121B901231344D87000F0C4
:100B6000F5BC7047FC000020F0207047EF2830B53E
:100B7000104C8ABF002520802580EF298ABF0025E0
:100B8000618065801418F02C0B4CD5BF02F1FF3248
:100B9000EF228018228003EB0102D8BF2080F02AC8
:100BA000D5BF03F1FF33EF23C9186380D8BF61803D
:100BB00030BD00BF0201002028000020F020704757
:100BC00070B515460C4600F0B1FC013D661E2C4484
:100BD000A64204D016F8010F00F0A0FCF8E770BDA3
:100BE000012837B5054601D1002322E002281FD194
:100BF00001230024062269468DF80230F0233320B9
:100C00008DF800408DF803308DF801408DF80440D8
:100C10008DF80540FFF7D4FF50232A466946372058
:100C20008DF801308DF80040FFF7CAFFC02300E0C7
:100C300060230122694636208DF80030FFF7C0FF9F
:100C400003B030BD00222920114608B5FFF7B8FFD8
:100C5000002211201146BDE80840FFF7B1BF2DE981
:100C6000F04F85B0002500F0BDFB0022102004AC41
:100C700011460526FFF7A4FF0A2000F064FC0022BD
:100C80000120EF2711464FF00C09FFF799FFC8200C
:100C900000F059FC002211204FF0330811464FF0AC
:100CA000350AFFF78DFF782000F04DFC04F8105D49
:100CB0000122214636204FF0D00BFFF781FF21465D
:100CC00001223A208DF80060FFF77AFF2A46294674
:100CD0002120FFF775FF214604222A208DF803709A
:100CE0008DF800508DF801508DF80250FFF768FF25
:100CF000214604222B208DF803708DF80050082720
:100D00008DF801508DF80250FFF75AFF3246214608
:100D1000B2208DF800908DF8019001268DF80380A7
:100D20008DF804808DF80250FFF74AFF214601221A
:100D3000B7208DF800A0FFF743FF1F2321460122B3
:100D4000BB208DF80030FFF73BFF2C23214601220A
:100D5000C0208DF80030FFF733FFC3232146022265
:100D6000C2208DF801308DF80060FFF729FF2023A5
:100D700032462146C4208DF80030FFF721FF0F23B3
:100D800032462146C6208DF80030FFF719FFA42314
:100D900032462146D0208DF80030A1238DF8013055
:100DA000FFF70EFF11238DF804908DF807804FF0A8
:100DB00039098DF8023015234FF0140821468DF8BB
:100DC000053050230E22E0208DF8083036238DF8B0
:100DD00000B08DF8093013238DF801708DF80A30BA
:100DE00029238DF803708DF80C302D238DF8069093
:100DF0008DF80D308DF80B80FFF7E2FE10232146B1
:100E00000E22E1208DF8023006238DF800B08DF817
:100E100004308DF8053044238DF801708DF80730CB
:100E200051238DF803708DF808300B238DF8069050
:100E30008DF8093016238DF80B808DF80A302F239A
:100E40008DF80C3031238DF80D30FFF7B9FEFFF728
:100E5000F9FE3246214650468DF80050FFF7B0FEAD
:100E600005B0BDE8F08F07B5FE2302A90122BD2021
:100E700001F8043DFFF7A4FE002210201146FFF701
:100E80009FFE0A2000F05FFB03B05DF804FB37B55E
:100E9000C0B2042200250C468DF8050011380DEB78
:100EA00002018DF804508DF807002A208DF80650B5
:100EB000FFF786FEE1B204222B208DF804508DF856
:100EC000051011398DF806508DF807100DEB020151
:100ED000FFF776FE03B030BD10B51446FFF7D7FF1D
:100EE00000222C201146FFF76BFE2046BDE8104083
:100EF00000F014BB38B504460D46FFF7C8FF29467D
:100F00002046FFF7C4FF00222E201146FFF758FEAF
:100F100000F014FB00F012FB044600F00FFBC0F3DE
:100F2000C420C4F3850304F4784400EB4310204448
:100F300080B238BD70B50646084611461D46FFF71B
:100F4000A6FF002200242C201146FFF739FEAC42F8
:100F500004D03046013400F0E1FAF8E770BDF8B58E
:100F600014461D460E460746114625443046FFF7F7
:100F70008EFF0022ADB22C201146FFF721FEAC42BD
:100F800007D0214601343A463046FFF7A5FFA4B208
:100F9000F5E7F8BD2DE9F047044615460022002686
:100FA0002544DFF84880DFF848900F462C20114692
:100FB0009A46FFF705FEAC4216D2B8F800309C42C4
:100FC00010D3B8F80230BB420CD8B9F800309C42BC
:100FD00008D8B9F80230BB4204D33AF816000136FB
:100FE00000F09CFA0134E6E7BDE8F087020100203A
:100FF000280000202DE9F0470E46174907461748FC
:101000000D880388013549884088ED1A53889388F4
:1010100001315389ADB2B2F80C80091A9BB216FAAD
:1010200081F14FEA450943EA084302EB0308B14264
:101030000FD94C1E38461FFA84FA5146FFF727FF96
:10104000434651462A463846C844FFF7A3FF214687
:10105000EDE7BDE8F08700BF280000200201002076
:101060002DE9F047089D064617460C464FEA420A0E
:1010700001EB03094C450ED21FFA84F830460134C7
:101080004146FFF704FF2B463A4641463046554459
:10109000FFF780FFEEE7BDE8F08708B500F046FAFD
:1010A00000F04CFA00F04AFAC0B208BD08B500F0F2
:1010B00099F90420FFF7F1FF08BD00002DE9F04188
:1010C0008EB0054601F0C6FD002840F0EE80784B5A
:1010D0009D4201D1774A07E003F14C02954202D1CB
:1010E000754ADA6401E0754A2A60754A00269D4215
:1010F000744C6A604FF00102AE60EA602E616E616E
:10110000EE612E6247D1236B042709A96E4843F094
:1011100002032363236B03F002030193019B236B00
:1011200043F002032363236B0B9603F002030D9736
:101130000293029B4FF48073099312230A930223B4
:101140000C9301F087F94FF4007309A95E480993E5
:101150000D9701F07FF9236C32460F211F2043F4D5
:1011600000132364236C03F400130393039B236A8B
:1011700043F400132362236A23F40013236200F074
:101180003DFF1F2000F072FF202032460F2100F0AB
:1011900035FF202084E04D4B9D42236B46D143F028
:1011A00001034FF48078042709A92363236B48487F
:1011B00003F001030493049B236B43F08003236338
:1011C000236BCDF8248003F080030B960D970593D5
:1011D000059B12230A9302230C9301F03BF909A902
:1011E0003C48CDF824800D9701F034F9236C324649
:1011F0000F21482043F400032364236C03F400030D
:101200000693069B236A43F400032362236A23F4B4
:101210000003236200F0F2FE482000F027FF49207F
:1012200032460F2100F0EAFE492039E043F0800306
:1012300009A928482363236B0B9603F080030793C7
:10124000079B1023099312230A9302230C93042370
:101250000D9301F0FFF8202309A91E48099301F01E
:10126000F9F8236C32460F21212043F480032364D4
:10127000236C03F480030893089B236A43F48003E0
:101280002362236A23F48003236200F0B7FE212047
:1012900000F0ECFE222032460F2100F0AFFE2220AB
:1012A00000F0E4FE284601F0F7FA0EB0BDE8F08148
:1012B0000801002000540040005C0040005800403D
:1012C00032279140003802400004024054010020BF
:1012D00000000240001C024030B54FF47A7485B023
:1012E00005460294BDF824400194089C009401F046
:1012F0003FFB044628B1284601F020FB2846FFF7B3
:10130000DDFE204605B030BD30B54FF47A7485B0AF
:1013100005460294BDF824400194089C009401F015
:10132000DDFB044628B1284601F008FB2846FFF7FC
:10133000C5FE204605B030BD00B589B050B9144B8C
:101340001A6B42F001021A631B6B03F00103019355
:10135000019B0BE0012809D10D4B1A6B42F00202F0
:101360001A631B6B03F002030293029B094B03A950
:1013700053F8202003EB8003039201229868049223
:1013800005920322069201F065F809B05DF804FBAE
:101390000038024064000020054B012210B403EB2A
:1013A000800433F82010A0685DF8044B01F032B9D6
:1013B00064000020054B002210B403EB800433F8D6
:1013C0002010A0685DF8044B01F024B964000020EF
:1013D000034B03EB800233F82010906801F01EB934
:1013E00064000020484B49489A6B42F0010270B5F6
:1013F0009A63A0B09A6B022520AC012602F001028C
:101400000092009A9A6B42F001029A639A6B02F082
:1014100001020192019A9A6942F001029A619A6965
:1014200022F001029A611A6B42F008021A631A6BE9
:1014300002F008020292029A1A6B42F010021A633A
:101440001A6B02F010020392039A1A6B42F0200208
:101450001A631A6B02F020020492049A1A6B42F08B
:1014600040021A631B6B0E9503F040030F96059321
:10147000059B032310930C2311934DF6B37344F88B
:101480004C3D214600F0E6FF4FF68373214620488D
:101490000D9300F0DFFF4FF23F0321461D480D93EF
:1014A00000F0D8FF40F23F2321461B480D9300F087
:1014B000D1FF10224FF0204320460F9512924FF497
:1014C00080520D9303F5827316924FF400120E931F
:1014D00000231C920922109306920622119308926F
:1014E00006AA1393114614931593179318931993FF
:1014F0001A931D931B93079509960A950B950C93C8
:1015000001F077FE20B070BD00380240000C0240B0
:101510000010024000140240001802404FF0C8437F
:101520005880BFF34F8FBFF34F8F70474FF0C843C2
:101530001880BFF34F8FBFF34F8F70474FF0C843F2
:10154000588880B2704700F02BBB0000114B1A6B1B
:1015500042F0800270B51A6386B01B6B4FF40075C1
:101560000D4C012603F0800301A92046019500934C
:10157000009B002302960393049300F06BFF324616
:101580002946204601F046F80448FFF797FD06B0CB
:1015900070BD00BF00380240001C02405401002012
:1015A0001FB504AC012304F8012D0A46014601933E
:1015B00000940248FFF790FE04B010BD54010020D3
:1015C0001FB5002304AA02F8013D01238DE80C0099
:1015D0000A4601460348FFF797FE9DF80F0005B045
:1015E0005DF804FB5401002007B58DE80C000A46A5
:1015F000012301460248FFF787FE03B05DF804FBB4
:101600005401002008B5024B1B689B6A984708BD2F
:10161000A001002008B5024B1B68DB6A984708BD93
:10162000A0010020014B1860704700BF4402002059
:10163000014B5860704700BF44020020014B986086
:10164000704700BF44020020024B1B685B6903B176
:1016500018477047A00100202DE9F04F2B4B85B0B3
:10166000203A4FF00008029199680190B1F804B057
:10167000B1F806A00BF107050AFB02F2ED1005FB1D
:1016800002F4CBEBC500A21C0C6814440BF1FF3232
:1016900052FA80F30393029BD04503EB08091FFA2B
:1016A00089F92FD2012D08D0022D09D114F8026C2E
:1016B00014F8012C42EA06260BE014F8026C08E04C
:1016C00014F8016C14F8022C360246EA024226781D
:1016D00016430027BB4511D9039B0122D91B019B4F
:1016E0008A40D819094B4946324280B207F10107B6
:1016F00014BF1A889A88FFF7A7FFEBE708F10108E3
:101700002C44C8E705B0BDE8F08F00BF44020020BC
:101710002DE9F84F0E460746144699461146C4EB8C
:10172000010811F8013B002BF9D1224DFFF76AFFA8
:10173000B9F1010FAB689A88B0FBF2F008D0B9F1AB
:10174000020F0BD1C8EB000010FB02F2D21B04E029
:10175000C8EB0000424307EB520297B23BB2A246ED
:10176000DFF85090002BD8BF01279AF800B0C4EBE7
:101770000A081BF1000B1FFA88F818BF4FF0010B85
:10178000FFF740FFAB689B8803FB180080B29842CC
:101790000ED3BBF1000F0BD01AF8012B384631469F
:1017A000FFF75AFFD9F808309A883A4497B2DCE735
:1017B000BDE8F88F44020020104B1B682DE9F04172
:1017C0001C6A05460E46174674B9DFF83480BC42E1
:1017D00008D22819B8F800203146013480B2FFF74A
:1017E00033FFF4E7BDE8F08113460A46014604489A
:1017F000A4460088BDE8F041604700BFA00100207A
:1018000044020020F8B50A4C002526682060FFF746
:1018100001FF0746BD4208D0FFF7F4FEA9B201352B
:1018200082B20020FFF7C8FFF4E7B6B22660F8BD29
:10183000440200202DE9F0411746094A8846064631
:1018400011885D1C0024116008EB040101343A4644
:10185000304689B2FFF7B0FFAC42F5D1BDE8F08168
:1018600044020020214B1A6B42F08002F0B51A634B
:1018700089B01A6B00241E4D802702F080020126D9
:1018800003A928460092009A1A6B42F004021A63D8
:101890001A6B02F004020192019A1A6B42F0800264
:1018A0001A631B6B039703F080030594049602935D
:1018B000029B0223069300F0CDFD224639462846BE
:1018C00000F0A8FE4FF4807303A90A480393049420
:1018D00000F0C0FD4FF4006303A92846049603936B
:1018E000069400F0B7FD09B0F0BD00BF003802401B
:1018F000001C02400008024070B54FF6FF73224CF6
:10190000002605466360214B2660A360FFF7AAFF0F
:1019100001224FF400611E4800F07CFE3246802117
:101920001B4800F077FE052000F03AF901228021E3
:10193000174800F06FFE0A2000F032F9324680218D
:10194000134800F067FE142000F02AF9114E01221E
:1019500080210F4800F05EFE0A2000F021F9736834
:10196000984785280DD10C4B1E60336898470DB100
:10197000022D02D12846FFF733F9084B0020A3605F
:1019800070BD012070BD00BF440200208C0000200B
:10199000001C02402C000020A00100208400002038
:1019A0000120FFF7A9BF000070B5114D1646114C7C
:1019B0002B68207898476B6870209847CD2814D101
:1019C0007023656023700C4B0EB9062203E0022ED3
:1019D0000CBF08220C221A707020AB68984763680D
:1019E0002078DB689847002070BD032070BD00BFE1
:1019F00000000020A4010020AC0000200122FFF71D
:101A0000D3BF00002DE9F74F354E8146736830781B
:101A10001B69984789F8000000285CD006F1080A85
:101A2000C84601AD6C460027D34699F800309F4266
:101A300051D273682A46214630785B6908F1020862
:101A40009847284BDFF8A0C002351B7802341907ED
:101A500041BF34F8022C35F8021C25F8022C24F87A
:101A6000021C9A074FEA870142BF34F8022CC2F1E8
:101A7000EF0224F8022C5B075AF8272007F1010730
:101A800048BF35F8023C34F802EC44BFC3F1EF0321
:101A900025F8023C964551F80C3035F8020C8CBF05
:101AA000C2EB0E02CEEB0202984292B28CBFC31A76
:101AB0001B1A9BB21344052BC8BF4BF801E05BF81F
:101AC0000130C8BF4CF80100A8F800305CF80130C4
:101AD000A8F80430A9E7002003B0BDE8F08F00BFEC
:101AE000A4010020AC000020B40100200F49002018
:101AF000D1F8883043F47003C1F888300C4B1A6871
:101B000042F001021A6098601A6822F0847222F48E
:101B100080321A60074A5A601A6822F480221A60DA
:101B2000D8604FF000638B60704700BF00ED00E0AD
:101B30000038024010300024084B10B504461868E5
:101B40004FF47A73B0FBF3F000F09CFA00222146C8
:101B50004FF0FF3000F052FA002010BDDC000020F2
:101B6000074A032008B5136843F40073136000F0BC
:101B700033FA0F20FFF7E0FF01F08AFE002008BDD6
:101B8000003C0240024A136801331360704700BFF3
:101B900050020020014B1868704700BF500200201F
:101BA00013B50190FFF7F6FF0446FFF7F3FF019B23
:101BB000001B9842F9D302B010BD000010B50446D6
:101BC000002800F09E80036C23B9436480F83C3009
:101BD00001F060FE236CDB0600F18E80236C23F4A1
:101BE000885323F0020343F002032364464B5A68F0
:101BF00022F440325A60596862680A435A60236886
:101C000021695A68A06A22F480725A605A6842EACE
:101C100001225A605A6822F040725A60A2685968DC
:101C20000A435A609A6822F400629A60E2689968EE
:101C30000A439A60354A90420ED0996821F070614B
:101C400099609A6802439A609A6822F040529A60BA
:101C5000E26A99680A4306E09A6822F070629A6024
:101C60009A6822F040529A609A68A16922F00202B2
:101C70009A609A6842EA41029A60226A9AB15A6866
:101C800042F400625A605A6822F460425A604FF48B
:101C9000604292FAA2F2B2FA82F1626A5868013A9C
:101CA0008A40024302E05A6822F400625A6000202F
:101CB000DA6A22F47002DA62E269D96A013A41EA28
:101CC0000252216BDA629A6822F400729A609A6872
:101CD00042EA412261699A609A6822F480629A60BD
:101CE0009A6842EA81229A606064236C23F00303BD
:101CF00043F00103236400E00120002384F83C301A
:101D000010BD012010BD00BF002301400100000FE5
:101D100037B5134600220446019290F83C20012A70
:101D200064D00122056880F83C20AA68D20703D558
:101D3000AA68D00713D44EE0AA6842F00102AA6054
:101D40002C4A10682C4AB0FBF2F000EB40000190E6
:101D5000019A002AECD0019A013A0192F8E7206C2E
:101D600020F4E06020F0010040F4807020646A6894
:101D7000520505D5206C20F4405040F4805020647A
:101D8000226C12F4805202D0626C22F0060262646D
:101D90000022A06B84F83C20184AC263184A0264EF
:101DA000184AC2646FF022022A606A6842F08062B8
:101DB0006A60AA6842F48072AA600A4605F14C0182
:101DC00000F04AFA104B5B6813F01F0F236804D031
:101DD0000E4A934201D0002009E0986810F040506C
:101DE000F9D19A6842F080429A6000E0022003B084
:101DF00030BD00BFDC00002040420F00131E200059
:101E0000751E2000811E200000230140002001409B
:101E10007047836B1A6C12F0500F10B524D11A6CF6
:101E200042F400721A641A68916811F0405F17D189
:101E30009969A9B9D16A11F4700F02D09168490566
:101E40000ED4516821F0200151601A6C22F4807286
:101E50001A641A6CD20403D41A6C42F001021A6498
:101E60001846FFF7D5FF10BD9B6BBDE81040DB6C3B
:101E70001847704708B5806BFFF7FBFF08BD704738
:101E800008B5806B40230364436C43F00403436450
:101E9000FFF7F5FF08BD00000023F7B5019390F8A8
:101EA0003C30012B70D00D6801230468092D80F8A7
:101EB0003C30AEB28F6817D906EB4602D4F80CE07E
:101EC000A2F11E0307229A402EEA0202E2603D4A76
:101ED000954203D1E36843EA076303E0E26807FA47
:101EE00003F31343E3600EE005EB45034FF0070EE9
:101EF00022690EFA03FE07FA03F322EA0E022261B8
:101F00002269134323614B68062B4FEA83020DD8E5
:101F10001344676B591F1F238B4006FA01F127EA10
:101F200003036363626B114361631DE00C2B0ED8E6
:101F30001344216BA3F123021F23934006FA02F2FC
:101F400021EA03032363236B1A4322630CE0134447
:101F50001F22E76A413B9A4027EA0202E26206FA40
:101F600003F2E16A0A43E262174B9C4204D0002369
:101F700080F83C30184623E0122D07D1134A5368ED
:101F800043F480035360F2E7022019E00D4B9D42B9
:101F900001D0112DEBD10D499D424A6842F4000257
:101FA0004A60E4D10A4B0B4A1B68B3FBF2F20A23E6
:101FB00053430193019B002BD9D0019B013BF8E7D0
:101FC00003B0F0BD120000100020014000230140CA
:101FD000DC00002040420F00074A0002D36800F4F2
:101FE000E06023F4E0631B041B0C43F0BF6343F485
:101FF00000330343D360704700ED00E0194BDB680A
:10200000C3F3022330B5C3F107041D1D042C28BF00
:102010000424062D4FF001058CBF033B002305FA75
:1020200004F4002804F1FF3404EA010404FA03F480
:1020300005FA03F303F1FF3302EA030242EA040262
:102040004FEA021205DA00F00F00D2B2064B1A5422
:1020500030BD00F16040D2B200F5614080F800234D
:1020600030BD00BF00ED00E014ED00E042090123A7
:1020700000F01F0003FA00F0014B43F82200704704
:1020800000E100E00138B0F1807F0AD2064BF02178
:10209000064A5860002082F82310072298601A60D0
:1020A00070470120704700BF10E000E000ED00E045
:1020B000BFF35F8F044A536A23F4803353620022D4
:1020C000024B5A60704700BF00ED00E090ED00E069
:1020D000064A40F00100064B5860536A43F48033CF
:1020E0005362BFF34F8FBFF36F8F704700ED00E077
:1020F00090ED00E0437811498B600378DBB14368D1
:10210000CB60C37A027B1B0643EA02730278134357
:10211000827A43EAC243427B43EA8243827B43EAB8
:102120004243C27B43EA0243427A43EA0223027AF1
:1021300043EA420300E0CB600B61704790ED00E0A2
:1021400003681821DAB223F47F73103A23F00303F3
:10215000B2FBF1F20449032A895C88BF0433C165EC
:102160008365806D704700BFC476200070B504465B
:10217000FFF710FD0546002C64D00023226884F888
:102180003430022384F83530136823F001031360E0
:1021900020680368D90708D5FFF7FCFC401B052819
:1021A000F6D920230320636551E00368294A61685A
:1021B0001A40A368A5691943E368194323691943C1
:1021C00063690B43E1692B430B43216A0B431343C0
:1021D000626A042A01BF216BE66A31430B43042A79
:1021E0000360436923F0070343EA02031CD1A26A98
:1021F000E16A1343C1B125B9012A0BD012D3022AD7
:102200000FE0B5F5005F09D1032A0DD8DFE802F031
:102210001C0A1C02B1F1C07F06D115E0022A13D9B5
:10222000032A01D1CA010FD443612046FFF788FF7A
:10223000E26D3F239340836000200123606584F8B2
:10224000353070BD012070BD40230120636584F8E6
:10225000350070BD3F8010E070B590F83440012C1F
:1022600037D00124866D002580F8344090F8354041
:10227000012C4FF0020428D180F8354004684565F0
:10228000256825F48025256063608368402B02D192
:10229000A260E16001E0A160E260C26D3F23934073
:1022A000B360236843F016032360636943F080033F
:1022B0006361036C1BB1236843F008032360236848
:1022C000002043F00103236070BD80F834502046A5
:1022D00070BD022070BD00000023F7B501930446D5
:1022E000594B856D1F680823C26D2E6893401E42AE
:1022F0000CD001680868400708D5086820F0040081
:102300000860AB60636D43F0010363654F4B93401E
:102310001E4208D021684969090604D5AB60636D87
:1023200043F0020363654A4B93401E4208D0216884
:102330000968880704D5AB60636D43F004036365E7
:10234000102303FA02F2164217D02368196809070E
:1023500013D5AA601A68500304D51B68190308D561
:10236000A36C07E01A68D20503D41A6822F00802A9
:102370001A60236C0BB120469847E16D20228A40F9
:1023800016423BD023681868C60637D5AA6094F871
:102390003520052A1A6819D122F016021A605A69E6
:1023A00022F080025A61226C0AB9A26C1AB11A6832
:1023B00022F008021A603F238B40AB60002384F8B0
:1023C0003430012384F83530236D37E0500304D5D1
:1023D0001B6819030ED4636C0DE01A6812F4807246
:1023E00008D1196821F010011960012384F8342004
:1023F00084F83530E36B0BB120469847636D03B327
:10240000636DDA0719D50523226884F8353013681F
:1024100023F0010313604FF41653B7FBF3F7019B4E
:1024200001339F42019302D31368DB07F7D40023E3
:1024300084F83430012384F83530E36C0BB1204646
:10244000984703B0F0BD00BFDC0000200100800011
:10245000040080002DE9F04F0B6885B0694E0193B0
:102460000023DFF8A8C1B646DFF8A4810122019C51
:102470009A4032EA040440F0BD804C6824F0100910
:10248000B9F1020F14D14FEAD30A03F0070B0F255D
:1024900000EB8A0A4FEA8B0BDAF8207005FA0BF58D
:1024A00027EA05050F6907FA0BF72F43CAF82070D2
:1024B0004FEA430A0325076804F0030B05FA0AF5FF
:1024C00009F1FF390BFA0AFBED43B9F1010F07EAF5
:1024D00005074BEA0707076012D8876805EA07096E
:1024E000CF6807FA0AF747EA0907C4F300198760BB
:1024F00009FA03F9476827EA020749EA070747602C
:10250000C7683D408F6807FA0AF73D43C560E5009C
:1025100070D5DCF8445023F0030703F0030A4FF0B2
:102520000F0945F4804507F180474FEA8A0ACCF845
:10253000445007F59C37DCF8445005F4804503957A
:10254000039D09FA0AF5D7F808B02BEA05092E4DC4
:10255000A8421CD005F58065A8421AD005F5806513
:10256000A84218D005F58065A84216D005F580650B
:10257000A84214D0404514D005F50065A84212D0F9
:1025800005F58065A84214BF082507250CE0002545
:102590000AE0012508E0022506E0032504E0042501
:1025A00002E0052500E0062505FA0AF514F4803F4F
:1025B00045EA0905BD606FEA020735680CBF3D407A
:1025C000154314F4003FCEF80050DEF804500CBF61
:1025D0003D40154314F4801F7560B5680CBF3D4045
:1025E0001543A402CEF80850DEF80C5054BF3D400D
:1025F0001543F5600133102B7FF438AF05B0BDE80B
:10260000F08F00BF003C0140000002400038024053
:102610000014024002B909048161704743695940BE
:102620004161704703689A69910701D500229A6257
:102630009A69D20703D49A6942F001029A617047FD
:1026400030B50568C1F30901054C6868044003987A
:10265000204303430B4343EA02426A6030BD00BF9C
:10266000009800FC2DE9F041069F04468846164676
:102670001D462268936938EA03030CBF0123002337
:10268000B34213D16B1CF5D055B92023032084F835
:102690004130002384F8423084F84030BDE8F081B6
:1026A000FFF778FAC01B8542E3D2EEE70020BDE8D1
:1026B000F0810000036870B5044698690D4616461F
:1026C00010F010000BD170BD99698A0613D4691CF3
:1026D000FAD035B1FFF75EFA801B854201D323683B
:1026E000F2E72023032084F84130002384F84230AD
:1026F00084F8403070BD102220252046DA61DD616B
:10270000FFF790FF2268074B012051680B40536090
:1027100004236364002384F8415084F8403084F833
:10272000423070BD00E800FE70B504460D46164606
:1027300023689B699B071CD4324629462046FFF735
:10274000B9FFC0B96A1CF3D06DB9636C032043F0C4
:1027500020036364202384F84130002384F842304E
:1027600084F8403070BDFFF715FA801B8542DFD238
:10277000EBE7002070BD012070BDF7B51F464FF498
:1027800000530446099E009315464FF08073FAB239
:10279000FFF756FF324608992046FFF7C5FF20B1E4
:1027A000636C042B0ED1012019E0012F23680BD19B
:1027B000EDB20022802120469D62089B0096FFF723
:1027C00051FF60B103200AE02A0A089920469A6264
:1027D0003246FFF7A9FF0028E2D12368E8E703B0FB
:1027E000F0BDF7B51F464FF400530446099E009311
:1027F00015460023FAB2FFF723FF32460899204618
:10280000FFF792FF20B1636C042B0ED1012019E079
:10281000012F23680BD1EDB20022402120469D629A
:10282000089B0096FFF71EFF60B103200AE02A0A0A
:10283000089920469A623246FFF776FF0028E2D1D7
:102840002368E8E703B0F0BD70B504460D461646B0
:1028500023689B699B061AD4324629462046FFF717
:1028600029FFB0B96DB9636C032043F020036364A2
:10287000202384F84130002384F8423084F840302B
:1028800070BDFFF787F9801B8542E1D2EBE700209E
:1028900070BD012070BD704710B5044600284AD0B5
:1028A00090F8413003F0FF021BB980F84020FFF799
:1028B000F2FF2423E16884F84130012923681A6873
:1028C00022F001021A60626822F070621A619A684E
:1028D00022F400429A60A26803D142F400429A6056
:1028E00007E042F4044202299A6002D14FF40062E8
:1028F0005A605A680020216942F0007242F4004296
:102900005A60DA6822F40042DA6062690A43A16917
:1029100042EA0122E169DA60226A0A431A601A680F
:1029200042F001021A602023606484F84130206381
:1029300084F8420010BD012010BD704710B5044658
:1029400098B10268242380F84130136823F0010312
:102950001360FFF7F2FF0020606484F8400084F801
:102960004100206384F8420010BD012010BD00002A
:102970002DE9F04F9B4690F8413085B00446202B5E
:102980000F460392BDF83CA0DDF8409040F09F80D8
:102990000E9B0BB901209BE0BAF1000FFAD090F822
:1029A0004030012B00F09380012580F84050FFF764
:1029B000F1F81923009006462A464FF400412046BC
:1029C000FFF750FE804600284ED121236063019618
:1029D000394684F841304023CDF8009084F84230E5
:1029E0000E9B6064204663625B46A4F82AA0039AAB
:1029F000FFF7C3FE18B1636C84F8408056E0638D26
:102A00009BB2FF2B05D9FF2200904FF080732285E7
:102A100006E0628D4FF00073009092B22285D2B230
:102A200039462046FFF70CFE324649462046FFF75E
:102A30007BFE002839D1636A2268591C61621B78C9
:102A40009362228D638D013A013B92B29BB2228543
:102A5000638502BB638D9BB2EBB100964B46802130
:102A60002046FFF7FFFD08B1032031E0638D9BB2E4
:102A7000FF2B05D9FF2200904FF08073228506E0DE
:102A8000628D4FF00073009092B22285D2B2394627
:102A90002046FFF7D5FD638D9BB2002BC4D1324693
:102AA00049462046FFF7D0FE18B1636C042BDBD1FA
:102AB00070E723682021084AD9615D682A405A607E
:102AC00084F8411084F8400084F8420000E00220BD
:102AD00005B0BDE8F08F00BF00E800FE2DE9F04F23
:102AE0009B4690F8413085B00446202B0F46039258
:102AF000BDF83CA0DDF8409040F0A5800E9B0BB9DE
:102B00000120A1E0BAF1000FFAD090F84030012B7B
:102B100000F09980012580F84050FFF73BF8192319
:102B2000009006462A464FF400412046FFF79AFDE2
:102B30008046002877D1222360630196394684F8C5
:102B400041304023CDF8009084F842300E9B606401
:102B5000204663625B46A4F82AA0039AFFF741FE71
:102B600018B1636C84F840805AE0638D9BB2FF2BF0
:102B700007D94FF41053FF2200934FF08073228542
:102B800008E0628D4FF4105392B200934FF000733F
:102B90002285D2B239462046FFF752FD00964B46B9
:102BA000002204212046FFF75DFD00283BD1636A27
:102BB0005A1C62622268526A1A70228D638D013A31
:102BC000013B92B29BB222856385F2B9638D9BB2C1
:102BD000DBB100964B4680212046FFF743FD10BB3A
:102BE000638D9BB2FF2B05D9FF2200904FF08073BD
:102BF000228506E0628D4FF00073009092B222852C
:102C0000D2B239462046FFF71BFD638D9BB2002BE5
:102C1000C4D1324649462046FFF716FE28B1636C00
:102C2000042B3FF46DAF03200EE023682021084AF7
:102C3000D9615D682A405A6084F8411084F84000E8
:102C400084F8420000E0022005B0BDE8F08F00BF2C
:102C500000E800FE90F8410070470000194B1A6C24
:102C600042F0805273B51A641B6C174C03F080530A
:102C700025460193019B236843F480332360FEF7CC
:102C800089FF06466B68104CDA0307D4FEF782FF13
:102C9000801BB0F57A7FF5D9032011E0236843F457
:102CA00000332360FEF776FF054663689B0306D476
:102CB000FEF770FF401BB0F57A7FF6D9ECE70020F5
:102CC00002B070BD003802400070004003682DE97A
:102CD000F3410446D80703D42368990752D4A5E0EA
:102CE0009D4B9A6802F00C02042A07D09A6802F001
:102CF0000C02082A0BD15B685A0208D5964B1B6858
:102D00009B03E9D56368002BE6D1012083E163686A
:102D1000914DB3F5803F13D05BB92B6823F480331A
:102D20002B602B6823F480232B60FEF733FF0646CD
:102D300024E0B3F5A02F2B6806D143F480232B6049
:102D40002B6843F4803305E023F480332B602B6839
:102D500023F480232B60FEF71DFF7F4D06462B6872
:102D60009F03B9D4FEF716FF801B6428F7D9032010
:102D700051E1FEF70FFF801B6428F8D82B689803F9
:102D8000F7D4A9E7744B9A6812F00C0F07D09A6831
:102D900002F00C02082A17D15B68590214D46E4B5A
:102DA0001A68920702D5E268012AAED11A68F821A2
:102DB00091FAA1F12069B1FA81F122F0F80200FA4A
:102DC00001F10A431A6031E0E368634DF3B12B6807
:102DD00043F001032B60FEF7DDFE06462B685E48DC
:102DE0009F0705D4FEF7D6FE801B0228F6D9BEE762
:102DF0000368F82292FAA2F22169B2FA82F223F071
:102E0000F80301FA02F2134303600FE02B6823F08A
:102E100001032B60FEF7BEFE06462B68980705D51A
:102E2000FEF7B8FE801B0228F7D9A0E72368190730
:102E300003D423685A0723D48AE06369464D7BB1E3
:102E40006B6F43F001036B67FEF7A4FE06466B6FE2
:102E50009B07EED4FEF79EFE801B0228F7D986E77B
:102E60006B6F23F001036B67FEF794FE06466B6FF2
:102E70009F07DED5FEF78EFE801B0228F7D976E786
:102E8000354B1A6CD0000AD41A6C012642F08052DD
:102E90001A641B6C03F080530193019B00E0002631
:102EA0002E4D2B68D90504D5A3682B4D012B10D1CD
:102EB00024E02B6843F480732B60FEF76BFE07461B
:102EC0002B68DA05F0D4FEF765FEC01B6428F7D93D
:102ED0004DE76BB92B6F41F2883823F001032B6764
:102EE0002B6F23F004032B67FEF754FE074626E002
:102EF000052B2B6F06D143F004032B672B6F43F098
:102F0000010305E023F001032B672B6F23F004037B
:102F10002B6741F28835FEF73DFE0F4F80463B6F31
:102F20009B070FD4FEF736FEC8EB0000A842F6D987
:102F30001DE7FEF72FFEC01B40453FF618AF2B6F75
:102F40009807F6D426B1044A136C23F08053136417
:102F5000A2692AB900205EE00038024000700040FB
:102F60002E4DAB6803F00C03082B3FF4CEAE2B685C
:102F7000022A23F080732B6041D1FEF70BFE074637
:102F80002B68264E990105D5FEF704FEC01B0228CA
:102F9000F6D9ECE647F6C07292FAA2F24FF440334B
:102FA000B2FA82F093FAA3F34FF07062B3FA83F5AA
:102FB00092FAA2F2E369B2FA82F1276A626A1F43C7
:102FC000824047F0005343EA0200A36A5A08013ADC
:102FD00002FA05F3E26A03438A40134373603368DD
:102FE00043F080733360FEF7D5FD044633689A01E1
:102FF000B0D4FEF7CFFD001B0228F7D9B7E6FEF7E5
:10300000C9FD04462B689B01A4D5FEF7C3FD001B38
:103010000228F7D9ABE602B0BDE8F08100380240E3
:103020001B498B6803F00C03042B2CD0082B2CD1EC
:10303000486847F6C0724B6800F03F0013F4800FF9
:103040004B6892FAA2F247F6C071B2FA82F201EA34
:10305000030121FA02F114BF0E4A0F4AB2FBF0F04D
:103060000B4A00FB01F34FF44030526890FAA0F095
:1030700002F44032B0FA80F022FA00F00130400051
:10308000B3FBF0F07047034870470348704700BF38
:103090000038024040787D010024F400504A136853
:1030A00003F00F038B422DE9F04104460D460AD38D
:1030B0002168880714D54B48836823F0F002A36881
:1030C000134383600CE0136823F00F030B4313607A
:1030D000136803F00F039942EAD00120BDE8F081A4
:1030E000C90706D43E4A136803F00F039D4242D33A
:1030F0004BE062683B4B012A196802D111F4003F92
:1031000006E0022A02D111F0007F01E011F0020F67
:10311000E3D0996841F28838324F21F003010A4325
:103120009A60FEF737FD63680646012B0CD1BB6839
:1031300003F00C03042BD5D0FEF72CFD801B40457B
:10314000F5D90320BDE8F081022B0FD1BB6803F055
:103150000C03082BC6D0FEF71DFD801B4045F5D99A
:10316000EFE7FEF717FD801B4045EAD8BB6813F078
:103170000C0FF6D1B6E7136823F00F032B4313604F
:10318000136803F00F039D42A7D121684A0706D5B3
:103190001448836823F4E052E368134383600B0709
:1031A00007D5104A2169936823F4604343EAC103B9
:1031B0009360FFF735FF0B4BF0229B6892FAA2F267
:1031C000B2FA82F203F0F003D340074AD35CD8404E
:1031D000064B18600F20FEF7AFFC0020BDE8F08121
:1031E000003C024000380240AC762000DC000020A9
:1031F000704770B50E461546044610B390F845303A
:1032000003F0FF021BB980F84420FFF7F1FF04F13F
:103210000801206800F018F8A2683146206800F024
:103220005BF8E36AA2682946606800F07DF8A1684F
:103230002268002052F8213043F0010342F8213087
:1032400070BD012070BD0000F0B50C68214A50F837
:1032500024308F681A404B680E6B082F47EA030E24
:10326000CB684D6B4EEA030E0B694EEA030E4B69B9
:103270004EEA030E8B694EEA030ECB694EEA030E4B
:103280000B6A4EEA030E4B6A4EEA030E8B6A4EEA55
:10329000030ECB6A896B4EEA030343EA060343EA53
:1032A000010343EA050343EA020308BF43F0400376
:1032B000B6F5801F40F8243005D144B1026842F4CD
:1032C0008012026000E014B103682B430360002009
:1032D000F0BD00BF8004C0FF00EB8202536870B5F0
:1032E0000C6803F040468B690D6923434C68013D2F
:1032F00043EA04148B682D0544EA0324CB6844EAAE
:10330000034343EA05044B69023B44EA0363334346
:1033100053600368DB0204D5436823F470031D4344
:103320004560002070BD0000B3F5804F30B511D16D
:1033300050F822300A4D0C681D408B6923434C68BD
:1033400043EA04138C6843EA0424CB6844EA034349
:103350002B4301E06FF0704340F82230002030BD75
:103360000000F0CFDFF834D0002103E00C4B5B58B5
:10337000435004310B480C4B42189A42F6D30B4A87
:1033800002E0002342F8043B094B9A42F9D3FEF7CE
:10339000ADFB00F0EBFA00F073F970470000042079
:1033A0003477200000000020E0000020E000002032
:1033B000BC020020FEE70020FDF7EEBF10B5FEF7CF
:1033C00021F90446FEF726F981B2A0B2BDE810400B
:1033D000FEF714BB00000000D0B504464043FDF7E3
:1033E0007FF80FA3D3E90023FDF7E0F806460F4668
:1033F0002046FDF775F80CA3D3E90023FDF7D6F8B6
:1034000002460B4630463946FCF71CFF08A3D3E9B9
:103410000023FCF717FFFDF7DBFA00EE100AD0BD22
:103420005FB2A0198C5DE73EB6351AA7BE7F753F27
:10343000B62DCA6C90C9FF3F38B52DED028B9FEDBC
:103440000F8A05460024F0EE488A01342046FDF735
:1034500047F800220A4BFDF7D3F9FDF7B9FAB5ECAE
:10346000017A07EE900A052CE7EE878A38EE278A64
:10347000EBD188EE880ABDEC028B38BD000000005D
:103480000000244010B51F20FEF7CCF8FEF7C2F86C
:103490000446FEF7B7F83C23610882B200201439D5
:1034A00089B2FEF7C7F91F20FEF7C2F84FF6FF708A
:1034B000FEF7B8F8FEF7AEF8A0F1780101230B4A49
:1034C00089B20020FEF724F94FF6FF70FEF7B0F83E
:1034D0001F20FEF7A7F84FF47A70FEF761FB4FF656
:1034E000FF70BDE81040FEF78DB900BF24772000C3
:1034F00008B50020FDF720FF0120FDF71DFF00208B
:10350000FDF758FF0120BDE80840FDF753BF00005C
:1035100008B5FEF745FA0848FEF790F84FF6FF7039
:10352000FEF786F84FF6FF70FEF76CF90020BDE855
:103530000840FEF777B800BF8C0000201FB5174881
:103540004FF48034164B80E8180000230124836078
:103550000361846103624362C3628362C360C461C6
:1035600004634361FEF72AFB08B1FFF724FF082339
:1035700069460A4802948DE8180000230393FEF779
:103580008BFC08B1FFF717FF012206490348FEF73D
:10359000BFFB08B1FFF70FFF04B010BD740200209D
:1035A00000220140BC010020B5EEC00A70B5F1EE6A
:1035B00010FA48BFB1EE400AFDEEC07A17EE901A3D
:1035C000F8EEE77A092930EE670ADFED2C7AC9BFF9
:1035D0000A23002391FBF3F595FBF3F4C8BF03FB2B
:1035E00014534FF00A0520EE270AC8BF303391FB71
:1035F000F5F405FB1411FDEEC07AC4BF037001237E
:1036000030312E2417EE902AC154591CB2F57A7F1E
:10361000C9B2445403F1020103F103030FDB4FF479
:103620007A75C9B2DBB292FBF5F404F1300605FB02
:1036300014226424465492FBF4F230320DE0A2F1DD
:103640006404C9B2DBB2B4F5617F4FF03004445476
:1036500005D2642192FBF1F22244C25400E0C4542A
:103660005A1C2021D2B281549A1C56210333D2B263
:10367000DBB281540022C254184670BD00401C4683
:1036800000B593B00125FEF713FD4FF0C8430024A9
:1036900006A8079312238DF818508DF820300323C5
:1036A0008DF827508DF823308DF826508DF8255051
:1036B0008DF819408DF822408DF821408DF8244076
:1036C000FEF718FD4FF0C06306A88DF81950079358
:1036D000FEF710FD0420FEF7FBFCBFF34F8FBFF396
:1036E0006F8F654BC3F850425A6942F400325A61F9
:1036F000BFF34F8FBFF36F8FC3F88440BFF34F8F7B
:10370000D3F88010C1F34E32C1F3C901500143F622
:10371000E0740440084644EA807610F1FF30564DCC
:10372000C3F86062F7D212F1FF32EFD2BFF34F8FCE
:103730006B6943F480336B61BFF34F8FBFF36F8FBF
:10374000FEF70EFA01234FF4800206A806934FF409
:1037500080330D921922079302230E924FF4D872F0
:103760000C93109309230F921193FFF7AFFA08B14E
:10377000FFF721FEFFF772FA08B1FFF71CFE0F23D7
:10378000072101A8019302230293002303934FF41E
:10379000A05304934FF480530593FFF77FFC08B1C7
:1037A000FFF709FEFFF7A4FE344CFFF7B1FEFFF769
:1037B00005FEFFF767FEFFF7C1FE4FF6FF70FEF74D
:1037C00021F82F48FDF73AFF4FF6FF70FDF730FF65
:1037D0004FF6FF70FEF716F80020FDF723FF0020DC
:1037E000264EFDF7F5FD2748FEF70CF9A37C43B103
:1037F0000120FDF7EDFDFA20FEF7D2F90120FDF7DB
:10380000E7FD3088F56980B2FFF7E6FD1E4800EB62
:1038100085030135052D83ED000AF5611ED10023D6
:10382000E361636A2362FFF707FE184884ED090A23
:10383000FFF7BAFEF2EE047A94ED087AB4EEE77A76
:10384000F1EE10FA0ADB94ED097AB4EEE77AF1EEC4
:1038500010FA03D54FF6FF70FDF7D4FFFDF7DAFE3F
:10386000A0F178010123094A89B20020FDF750FF39
:103870006420FEF795F9B2E700ED00E0BC010020FE
:103880008C000020CE0100206002002054020020A5
:1038900070470000294B5A6C42F48062F0B55A64BC
:1038A00089B05A6C00254FF48067064602F48062A6
:1038B00003A923480092009A1A6B224C42F020027E
:1038C0001A631A6B02F020020192019A1A6B42F4F9
:1038D00080021A631B6B039703F480030595029320
:1038E000029B03230493FEF7B5FD174A4FF0806354
:1038F0002046A560E56027616562E562256384E88E
:103900000C004FF4805363614FF48043A3614FF484
:103910008073E3614FF4003323620123A362FEF757
:1039200025FCB4632A4629463820A663FEF766FBC9
:103930003820FEF79BFB09B0F0BD00BF0038024005
:1039400000140240E4010020106402407047FEE7CA
:10395000FEE7FEE7FEE7704770477047FEF712B9D3
:10396000014B986BFEF7B8BC7402002070B50E4B8B
:103970000E4CE41AA41000251E46A54204D056F8A9
:10398000253098470135F8E700F016F8084C094B48
:10399000E41AA41000251E46A54204D056F825308E
:1039A00098470135F8E770BD2C7720002C77200070
:1039B000307720002C772000F8B500BFF8BC08BC99
:1039C0009E467047F8B500BFF8BC08BC9E467047DD
:1039D0000000000000000000202020200020000047
:1039E00050500000000000002850F850F850A0008F
:1039F000203060301060200020201860101000007F
:103A000000382060507800002020200000000000D6
:103A100010202020202010004020202020204000C6
:103A20002070205000000000002020F8202000001E
:103A300000000000102020000000007000000000C6
:103A400000000000002000001020202040408000E6
:103A500020505050502000006020202020F800000E
:103A600020502020407000002050102010600000E6
:103A70001030507810380000704060105020000066
:103A80003040605050600000705010202020000036
:103A90002050205050200000305050301060000066
:103AA0000000200000200000000010001020000096
:103AB000001020C020100000007000700000000006
:103AC000004020182040000020501020002000005E
:103AD00030484858484038006020507088D800006E
:103AE000F048704848F000007050404040300000FE
:103AF000F048484848F00000F848604048F80000A6
:103B0000F848604040E000007040405850300000ED
:103B1000E848784848E80000702020202070000025
:103B20003810105050200000D850607050D800005D
:103B3000E040404048F80000D8D8D8A888D8000015
:103B4000D868685858E800003048484848300000B5
:103B5000F048487040E000003048484848301800BD
:103B6000F048487048E80000705020105070000085
:103B7000F8A8202020700000D848484848300000AD
:103B8000D888485050300000D888A8A8A850000015
:103B9000D850202050D80000D88850202070000035
:103BA0007848102048780000302020202020300065
:103BB0008040402020201000602020202020600035
:103BC000202050000000000000000000000000F86D
:103BD000201000000000000000003010707800008D
:103BE000C040704848F00000000070404070000085
:103BF0001808384848380000000070704030000055
:103C0000102070202070000000003848483808302C
:103C1000C040704848E8000020006020207000008C
:103C20002000701010101070C040587050D8000064
:103C300060202020207000000000D0A8A8A800006C
:103C40000000F04848C8000000003048483000003C
:103C50000000F048487040E0000038484838081834
:103C6000000078202070000000003020106000006C
:103C70000040F040483000000000D84848380000BC
:103C80000000C848303000000000D8A8A85000004C
:103C900000004830304800000000D850502020601C
:103CA00000007850287800001020206020201000AC
:103CB00020202020202020004020203020204000F4
:103CC000000000285000000000000000000000007C
:103CD0000000000000101010101000001000000084
:103CE000006C484800000000000000000014142888
:103CF0007C287C2850500000001038404038487024
:103D000010100000002050200C7008140800000063
:103D1000000000182020544834000000001010104B
:103D20001000000000000000000808101010101023
:103D30001008080000202010101010101020200083
:103D400000107C1028280000000000000000101067
:103D500010FE10101000000000000000000000180D
:103D60001030200000000000007C00000000000077
:103D700000000000000000303000000000040408D3
:103D800008101020204000000038444444444444BB
:103D90003800000000301010101010107C000000DF
:103DA00000384404081020447C000000003844041B
:103DB0001804044438000000000C141424447E0449
:103DC0000E000000003C20203804044438000000AD
:103DD000001C20407844444438000000007C440427
:103DE00008080810100000000038444438444444D7
:103DF0003800000000384444443C040870000000CF
:103E000000000030300000303000000000000018DA
:103E1000180000183020000000000C1060806010B6
:103E20000C000000000000007C007C00000000008E
:103E30000000C02018041820C00000000000182452
:103E400004081000300000003844444C54544C40E6
:103E5000443800000030102828287C44EE00000080
:103E600000F8444478444444F8000000003C4440D6
:103E7000404040443800000000F048444444444876
:103E8000F000000000FC445070504044FC00000072
:103E9000007E22283828202070000000003C44408A
:103EA000404E44443800000000EE44447C44444406
:103EB000EE000000007C1010101010107C000000BC
:103EC000003C0808084848483000000000EE44481C
:103ED00050704844E6000000007020202020242478
:103EE0007C00000000EE6C6C54544444EE00000072
:103EF00000EE64645454544CEC0000000038444418
:103F0000444444443800000000782424243820200D
:103F1000700000000038444444444444381C00000D
:103F200000F8444444784844E200000000344C4027
:103F3000380404645800000000FE921010101010A5
:103F40003800000000EE444444444444380000007B
:103F500000EE4444282828101000000000EE4444DD
:103F6000545454542800000000C64428101028441B
:103F7000C600000000EE4428281010103800000091
:103F8000007C4408101020447C00000000382020F1
:103F90002020202020203800004020202010100861
:103FA0000808000000380808080808080808380051
:103FB0000010102844000000000000000000000075
:103FC00000000000000000FE0010080000000000DB
:103FD0000000000000000038443C44443E00000063
:103FE00000C0405864444444F80000000000003C15
:103FF0004440404438000000000C04344C44444425
:104000003E00000000000038447C40403C000000BE
:10401000001C207C202020207C00000000000036B6
:104020004C4444443C04380000C040586444444478
:10403000EE00000000100070101010107C00000056
:1040400000100078080808080808700000C0405CEC
:1040500048705048DC0000000030101010101010A4
:104060007C000000000000E854545454FE0000009E
:10407000000000D864444444EE0000000000003812
:104080004444444438000000000000D864444444E0
:104090007840E000000000364C4444443C040E00EC
:1040A0000000006C302020207C0000000000003C5C
:1040B00044380444780000000000207C20202022A6
:1040C0001C000000000000CC4444444C36000000BA
:1040D000000000EE4444282810000000000000EE1C
:1040E0004454545428000000000000CC48303048AC
:1040F000CC000000000000EE4424281810107800C6
:104100000000007C481020447C00000000081010D3
:1041100010102010101008000010101010101010B7
:1041200010100000002010101010081010102000B7
:104130000000000000245800000000000000000003
:10414000000000000000000000000000000000006F
:1041500000000000000000000000000000000C0053
:104160000C000C000C000C000C000C000C000000FB
:104170000C00000000000000000000000000000033
:104180001DC01DC0088008800880000000000000DD
:1041900000000000000000000000000000000D8092
:1041A0000D800D800D803FC01B003FC01B001B0019
:1041B0001B001B00000000000000000004001F8026
:1041C0003180318038001E000F0003803180318043
:1041D0003F00040004000000000000000000180080
:1041E0002400240018C007801E00318002400240D5
:1041F000018000000000000000000000000000003E
:104200000F001800180018000C001D803700330044
:104210001D80000000000000000000000000000001
:10422000070007000200020002000000000000007A
:10423000000000000000000000000000000003007B
:10424000030006000E000C000C000C000C000E0019
:10425000060003000300000000000000000018003A
:1042600018000C0006000600060006000600060006
:104270000C001C00180000000000000000000600F8
:1042800006003FC03FC00F001F80198000000000E3
:10429000000000000000000000000000000000001E
:1042A00000000400040004003F8004000400040037
:1042B00000000000000000000000000000000000FE
:1042C00000000000000000000000000000000600E8
:1042D00004000C00080008000000000000000000BE
:1042E00000000000000000003F800000000000000F
:1042F00000000000000000000000000000000000BE
:1043000000000000000000000000000000000C00A1
:104310000C000000000000000000000000C000C011
:10432000018001800300030006000C000C0018004F
:1043300018003000300000000000000000000E00F7
:104340001B003180318031803180318031801B0011
:104350000E00000000000000000000000000060049
:104360003E000600060006000600060006000600E5
:104370003FC00000000000000000000000000F002F
:10438000198031803180030006000C0018003000D5
:104390003F800000000000000000000000003F001F
:1043A0006180018003001F00038001800180618023
:1043B0003F000000000000000000000000000700B7
:1043C00007000F000B001B00130033003F800300A9
:1043D0000F800000000000000000000000001F80AF
:1043E0001800180018001F00118001800180218032
:1043F0001F00000000000000000000000000078017
:104400001C0018003000370039803180318019805D
:104410000F000000000000000000000000007F000E
:104420004300030006000600060006000C000C0016
:104430000C000000000000000000000000001F0051
:104440003180318031801F00318031803180318076
:104450001F000000000000000000000000001E001F
:1044600033003180318033801D80018003000700DC
:104470003C00000000000000000000000000000000
:10448000000000000C000C000000000000000C0008
:104490000C00000000000000000000000000000010
:1044A0000000000003000300000000000000060000
:1044B00004000800080000000000000000000000E8
:1044C00000C003000400180060001800040003008E
:1044D00000C000000000000000000000000000001C
:1044E0000000000000007FC000007FC0000000004E
:1044F00000000000000000000000000000000000BC
:10450000600018000400030000C00300040018004D
:10451000600000000000000000000000000000003B
:104520001F0031803180018007000C000C0000006A
:104530000C000000000000000000000000000E0061
:104540001100210021002700290029002700200058
:1045500011000E000000000000000000000000003C
:104560003F000F000900198019801F8030C030C043
:1045700079E00000000000000000000000000000E2
:104580007F003180318031803F0031803180318047
:104590007F0000000000000000000000000000009C
:1045A0001F4030C0604060006000600060403080AC
:1045B0001F000000000000000000000000000000DC
:1045C0007F00318030C030C030C030C030C031805A
:1045D0007F0000000000000000000000000000005C
:1045E0007F803080308032003E003200308030806A
:1045F0007F800000000000000000000000000000BC
:104600007FC03040304032003E0032003000300089
:104610007C0000000000000000000000000000001E
:104620001E80318060806000600067C061803180E2
:104630001F0000000000000000000000000000005B
:104640007BC03180318031803F803180318031804A
:104650007BC000000000000000000000000000001F
:104660003FC0060006000600060006000600060021
:104670003FC000000000000000000000000000003B
:104680001FC0030003000300030063006300630016
:104690003E000000000000000000000000000000DC
:1046A0007BC03180330036003C003E003300318057
:1046B00079C00000000000000000000000000000C1
:1046C0007E00180018001800180018401840184004
:1046D0007FC000000000000000000000000000009B
:1046E000E0E060C071C07BC06AC06EC064C060C0E2
:1046F000FBE00000000000000000000000000000DF
:1047000073C0318039803D8035803780338031807F
:1047100079800000000000000000000000000000A0
:104720001F00318060C060C060C060C060C0318068
:104730001F0000000000000000000000000000005A
:104740007F0031803180318031803F003000300087
:104750007E000000000000000000000000000000DB
:104760001F00318060C060C060C060C060C0318028
:104770001F000CC01F8000000000000000000000AF
:104780007F003180318031803E00330031803180C4
:104790007CE00000000000000000000000000000BD
:1047A0001F803180318038001F00038031803180CC
:1047B0003F000000000000000000000000000000BA
:1047C0007F804C804C804C800C000C000C000C0056
:1047D0003F0000000000000000000000000000009A
:1047E0007BC03180318031803180318031803180B7
:1047F0001F0000000000000000000000000000009A
:104800007BC0318031801B001B001B000A000E00A2
:104810000E0000000000000000000000000000008A
:10482000FBE060C064C06EC06EC02A803B803B80ED
:1048300031800000000000000000000000000000C7
:104840007BC031801B000E000E000E001B0031806B
:104850007BC000000000000000000000000000001D
:1048600079E030C019800F0006000600060006003F
:104870001F80000000000000000000000000000099
:104880003F8021802300060004000C001880308047
:104890003F800000000000000000000000000780D2
:1048A00006000600060006000600060006000600D8
:1048B0000600060007800000000000003000300005
:1048C000180018000C000C00060003000300018013
:1048D000018000C000C000000000000000001E00B9
:1048E0000600060006000600060006000600060098
:1048F000060006001E0000000000000004000A0080
:104900000A0011002080208000000000000000004C
:104910000000000000000000000000000000000097
:104920000000000000000000000000000000000087
:1049300000000000000000000000FFE0080004008C
:104940000200000000000000000000000000000065
:104950000000000000000000000000000000000057
:10496000000000001F00018001801F803180338023
:104970001DC00000000000000000000000007000EA
:10498000300030003700398030C030C030C039804E
:1049900077000000000000000000000000000000A0
:1049A000000000001E8031806080600060803180E7
:1049B0001F00000000000000000000000000038055
:1049C000018001801D80338061806180618033803F
:1049D0001DC00000000000000000000000000000FA
:1049E000000000001F00318060C07FC0600030C048
:1049F0001F8000000000000000000000000007E031
:104A00000C000C003F800C000C000C000C000C0093
:104A10003F800000000000000000000000000000D7
:104A2000000000001DC033806180618061803380A0
:104A30001D80018001801F00000000000000700048
:104A40003000300037003980318031803180318052
:104A50007BC0000000000000000000000000060015
:104A6000060000001E000600060006000600060004
:104A70003FC0000000000000000000000000060031
:104A8000060000003F0003000300030003000300D2
:104A90000300030003003E0000000000000070005F
:104AA00030003000378036003C003C0036003300D8
:104AB00077C00000000000000000000000001E00A1
:104AC00006000600060006000600060006000600B6
:104AD0003FC00000000000000000000000000000D7
:104AE000000000007F8036C036C036C036C036C0F9
:104AF00076E0000000000000000000000000000060
:104B000000000000770039803180318031803180B1
:104B10007BC000000000000000000000000000005A
:104B2000000000001F00318060C060C060C03180A4
:104B30001F00000000000000000000000000000056
:104B4000000000007700398030C030C030C03980AC
:104B50003700300030007C00000000000000000042
:104B6000000000001DC0338061806180618033805F
:104B70001D800180018007C00000000000000000CF
:104B8000000000007B801CC01800180018001800EE
:104B90007F00000000000000000000000000000096
:104BA000000000001F8031803C001F000380318026
:104BB0003F0000000000000000000000000018009E
:104BC000180018007F00180018001800180018803E
:104BD0000F000000000000000000000000000000C6
:104BE000000000007380318031803180318033805B
:104BF0001DC00000000000000000000000000000D8
:104C0000000000007BC0318031801B001B000E00C3
:104C10000E00000000000000000000000000000086
:104C200000000000F1E060C064C06EC03B803B80CB
:104C300031800000000000000000000000000000C3
:104C4000000000007BC01B000E000E000E001B00C9
:104C50007BC0000000000000000000000000000019
:104C60000000000079E030C0198019800B000F00AF
:104C7000060006000C003E000000000000000000DE
:104C8000000000003F80218003000E0018003080EB
:104C90003F8000000000000000000000000006004F
:104CA0000C000C000C000C000C0018000C000C0098
:104CB0000C000C00060000000000000000000600D0
:104CC00006000600060006000600060006000600B4
:104CD00006000600060000000000000000000C00B6
:104CE0000600060006000600060003000600060097
:104CF000060006000C00000000000000000000009C
:104D000000000000000018002480030000000000E4
:104D10000000000000000000000000000000000093
:104D20000000000000000000000000000000000083
:104D30000000000000000000000000000000000073
:104D40000000000000000700070007000700070040
:104D50000700070002000200000000000700070033
:104D60000000000000000000000000000000000043
:104D70001CE01CE01CE00840084008400000000067
:104D80000000000000000000000000000000000023
:104D9000000000000CC00CC00CC00CC00CC03FF0E8
:104DA0003FF00CC00CC03FF03FF00CC00CC00CC07A
:104DB0000CC00CC000000000000000000300030055
:104DC00007E00FE0186018001F000FC000E0186037
:104DD00018601FC01F8003000300030000000000D4
:104DE0000000000000001C002200220022001C60C5
:104DF00001E00F803C0031C002200220022001C0EF
:104E000000000000000000000000000000000000A2
:104E1000000003E00FE00C000C0006000F301FF054
:104E200019E018C01FF007B00000000000000000EB
:104E300000000000000000000380038003800100E8
:104E40000100010000000000000000000000000060
:104E5000000000000000000000000000000000C092
:104E600000C00180018001800300030003000300F3
:104E70000300030001800180018000C000C0000029
:104E80000000000000000C000C00060006000600F8
:104E900003000300030003000300030006000600F4
:104EA00006000C000C0000000000000000000300E1
:104EB000030003001B601FE0078007800FC00CC0C9
:104EC00000000000000000000000000000000000E2
:104ED00000000000000000000000030003000300C9
:104EE00003003FF03FF00300030003000300000055
:104EF00000000000000000000000000000000000B2
:104F000000000000000000000000000000000000A1
:104F100000000380030003000600060004000000F8
:104F20000000000000000000000000000000000081
:104F300000003FE03FE00000000000000000000033
:104F40000000000000000000000000000000000061
:104F50000000000000000000000000000000000051
:104F600000000380038003800000000000000000B8
:104F7000000000000060006000C000C000C00180B0
:104F8000018003000300060006000C000C000C006A
:104F900018001800000000000000000000000F8052
:104FA0001FC018C0306030603060306030603060EA
:104FB000306018C01FC00F8000000000000000001B
:104FC00000000000000003001F001F00030003009A
:104FD0000300030003000300030003001FE01FE0C1
:104FE00000000000000000000000000000000F8032
:104FF0001FC038E03060006000C001800300060080
:105000000C0018003FE03FE000000000000000003E
:105010000000000000000F803FC030E0006000E0B2
:1050200007C007C000E00060006060E07FC03F8014
:10503000000000000000000000000000000001C0AF
:1050400003C003C006C00CC00CC018C030C03FE095
:105050003FE000C003E003E00000000000000000AB
:105060000000000000001FC01FC0180018001F80B3
:105070001FC018E000600060006030E03FC01F808B
:10508000000000000000000000000000000003E03D
:105090000FE01E001800380037803FC038E0306055
:1050A000306018E01FC00780000000000000000012
:1050B0000000000000003FE03FE03060006000C002
:1050C00000C000C0018001800180030003000300D4
:1050D00000000000000000000000000000000F8041
:1050E0001FC038E0306038E01FC01FC038E03060BB
:1050F000306038E01FC00F8000000000000000009A
:105100000000000000000F001FC038C03060306099
:1051100038E01FE00F6000E000C003C03F803E00A9
:10512000000000000000000000000000000000007F
:1051300000000000000003800380038000000000E6
:1051400000000380038003800000000000000000D6
:10515000000000000000000000000000000001C08E
:1051600001C001C000000000000003800300060031
:105170000600040000000000000000000000000025
:105180000000003000F003C007001C0078001C0085
:10519000070003C000F00030000000000000000025
:1051A00000000000000000000000000000007FF090
:1051B0007FF0000000007FF07FF0000000000000A2
:1051C00000000000000000000000000000000000DF
:1051D000000030003C000F00038000E0007800E099
:1051E00003800F003C0030000000000000000000C1
:1051F00000000000000000000F801FC01860186051
:10520000006001C0038003000000000007000700E9
:10521000000000000000000000000000000003800B
:105220000C8008401040104011C012401240124043
:1052300011C01000080008400780000000000000B6
:1052400000000000000000001F801F80038006C0D7
:1052500006C00CC00C601FE01FE030307878787812
:10526000000000000000000000000000000000003E
:105270003F803FC01860186018E01FC01FE0187022
:10528000183018303FF03FE0000000000000000040
:10529000000000000000000007B00FF01C70383064
:1052A000300030003000300038301C700FE007C094
:1052B00000000000000000000000000000000000EE
:1052C0007F807FC030E03070303030303030303070
:1052D000307030E07FC07F800000000000000000E0
:1052E00000000000000000003FF03FF018301830D0
:1052F00019801F801F801980183018303FF03FF050
:10530000000000000000000000000000000000009D
:105310003FF03FF01830183019801F801F8019802F
:10532000180018003F003F000000000000000000CF
:10533000000000000000000007B01FF018703030BF
:105340003000300031F831F8303018301FF007C02D
:10535000000000000000000000000000000000004D
:105360003CF03CF01860186018601FE01FE0186007
:10537000186018603CF03CF00000000000000000E5
:1053800000000000000000001FE01FE00300030019
:105390000300030003000300030003001FE01FE0FD
:1053A00000000000000000000000000000000000FD
:1053B00003F803F800600060006000603060306057
:1053C000306030E03FC00F800000000000000000AF
:1053D00000000000000000003EF83EF818E01980D0
:1053E0001B001F001D8018C018C018603E783E3892
:1053F00000000000000000000000000000000000AD
:105400003F003F000C000C000C000C000C000C30A6
:105410000C300C303FF03FF00000000000000000B6
:1054200000000000000000007878787838703CF0C8
:1054300034B037B037B03330333030307CF87CF8AC
:10544000000000000000000000000000000000005C
:1054500039F03DF01C601E601E601B601B6019E08F
:1054600019E018E03EE03E6000000000000000008F
:10547000000000000000000007800FC01CE0387032
:10548000303030303030303038701CE00FC00780A2
:10549000000000000000000000000000000000000C
:1054A0003FC03FE018701830183018701FE01FC060
:1054B000180018003F003F0000000000000000003E
:1054C000000000000000000007800FC01CE03870E2
:1054D000303030303030303038701CE00FC0078052
:1054E00007B00FF00CE0000000000000000000001A
:1054F0003FC03FE01870183018701FE01FC018E060
:10550000186018703E383E180000000000000000CF
:1055100000000000000000000FB01FF038703030B5
:1055200038001F8007E00070303038703FE037C02F
:10553000000000000000000000000000000000006B
:105540003FF03FF0333033303330030003000300CB
:10555000030003000FC00FC00000000000000000A7
:1055600000000000000000003CF03CF018601860F3
:10557000186018601860186018601CE00FC0078081
:10558000000000000000000000000000000000001B
:1055900078F078F03060306018C018C00D800D8051
:1055A0000D80070007000700000000000000000059
:1055B00000000000000000007C7C7C7C30183398E8
:1055C0003398339836D816D01C701C701C70183065
:1055D00000000000000000000000000000000000CB
:1055E00078F078F0306018C00D80070007000D805B
:1055F00018C0306078F078F0000000000000000073
:1056000000000000000000003CF03CF018600CC0FE
:105610000780078003000300030003000FC00FC0D2
:10562000000000000000000000000000000000007A
:105630001FE01FE0186018C001800300030006008F
:105640000C6018601FE01FE0000000000000000078
:1056500000000000000003C003C0030003000300BB
:105660000300030003000300030003000300030022
:10567000030003C003C00000000000001800180071
:105680000C000C000C000600060003000300018063
:10569000018000C000C000C0006000600000000089
:1056A0000000000000000F000F00030003000300D3
:1056B00003000300030003000300030003000300D2
:1056C00003000F000F0000000000000000000200B7
:1056D00007000D8018C0306020200000000000008E
:1056E00000000000000000000000000000000000BA
:1056F00000000000000000000000000000000000AA
:105700000000000000000000000000000000000099
:105710000000000000000000FFFCFFFC000004008F
:1057200003000080000000000000000000000000F6
:105730000000000000000000000000000000000069
:1057400000000000000000000000000000000FC08A
:105750001FE000600FE01FE0386030E03FF01F7096
:1057600000000000000000000000000000007000C9
:1057700070003000300037803FE03860303030302B
:10578000303038607FE077800000000000000000CB
:10579000000000000000000000000000000007B052
:1057A0001FF0183030303000300038301FF00FC09C
:1057B0000000000000000000000000000000007079
:1057C00000700030003007B01FF0187030303030FB
:1057D000303038701FF807B80000000000000000EB
:1057E0000000000000000000000000000000078032
:1057F0001FE018603FF03FF0300018301FF007C086
:10580000000000000000000000000000000003F0A5
:1058100007F0060006001FE01FE006000600060075
:10582000060006001FE01FE000000000000000006E
:10583000000000000000000000000000000007B8A9
:105840001FF8187030303030303018701FF007B04B
:10585000003000700FE00FC00000000000003800B2
:105860003800180018001BC01FE01C60186018608A
:10587000186018603CF03CF00000000000000000E0
:1058800000000000000003000300000000001F00F3
:105890001F00030003000300030003001FE01FE0DC
:1058A00000000000000000000000000000000300F5
:1058B0000300000000001FC01FC000C000C000C0E7
:1058C00000C000C000C000C000C001C03F803F0059
:1058D00000000000000038003800180018001BE02D
:1058E0001BE01B001E001E001B00198039F039F060
:1058F00000000000000000000000000000001F0089
:105900001F00030003000300030003000300030063
:10591000030003001FE01FE0000000000000000083
:1059200000000000000000000000000000007EE019
:105930007FF0333033303330333033307BB87BB8A3
:105940000000000000000000000000000000000057
:105950000000000000003BC03FE01C6018601860C1
:10596000186018603CF03CF00000000000000000EF
:1059700000000000000000000000000000000780A0
:105980001FE0186030303030303018601FE0078082
:105990000000000000000000000000000000000007
:1059A00000000000000077807FE038603030303049
:1059B000303038603FE03780300030007C007C00C1
:1059C000000000000000000000000000000007B818
:1059D0001FF8187030303030303018701FF007B0BA
:1059E0000030003000F800F8000000000000000067
:1059F0000000000000003CE03DF00F300E000C0005
:105A00000C000C003FC03FC0000000000000000080
:105A1000000000000000000000000000000007E09F
:105A20001FE018601E000FC001E018601FE01F801B
:105A30000000000000000000000000000000000066
:105A40000C000C000C003FE03FE00C000C000C00D0
:105A50000C000C300FF007C0000000000000000038
:105A6000000000000000000000000000000038E01E
:105A700038E0186018601860186018E01FF00F70A8
:105A80000000000000000000000000000000000016
:105A900000000000000078F078F0306018C018C0F6
:105AA0000D800D80070007000000000000000000CE
:105AB000000000000000000000000000000078F07E
:105AC00078F03260326037E01DC01DC018C018C0C9
:105AD00000000000000000000000000000000000C6
